:020000042000DA
:1000000000980020B9040020C1040020D904002079
:1000100000000000000000000000000000000000E0
:10002000000000000000000000000000F1040020BB
:100030000000000000000000090500200B05002062
:100040005D1B0020053103000D310300E31B002080
:10005000EF1B00208D310300451C00204D1C0020AB
:100060000D050020B7110020651C0020AD310300F4
:10007000251500204B1B02004B1B0200AF13002074
:100080004B1B02004B1B02004B1B02008111002086
:1000900085110020891100208D1100209111002070
:020000042000DA
:100160003F0000000B0600209F0F0020AD0800207C
:1001700000000000000000006D140020B5140020F5
:10018000B50C0020C9140020E7140020031500203E
:100190002B1500202F1B0020F10500206B0C0020E8
:1001A000830C0020F71C0020132400203F000000D7
:1001B000F487002000080000740B0800980200007B
:1001C0006807080000040000180E0800600D000019
:1001D000000000002000000048000000580000005F
:1001E00068000000E490F81F1491F81F2691F81F92
:1001F0002C91F81F202A00008E2E00000400000021
:100200008813000029100020E9600200FD9302001D
:100210006F33002019280300A5740200CD150020BB
:1002200003000000EF0C0020AD08002004000000D7
:10023000D74902000F490200831D020063910200AA
:10024000B7910200BF910200078202007182020092
:10025000F03B0020AD830200938402004185020040
:1002600015860200378602005F860200758602004E
:10027000F9870200258902005D8A0200D38C020002
:10028000098D02000F900200438D0200278E0200AC
:10029000F98E0200478F0200DD0B0020D58F02008F
:1002A00049510200775102002F5202001000000055
:1002B00020030000803E00003C0000003C000000E5
:1002C0001A00000000000000000000000000000014
:020000042000DA
:10035000FFFF010000C201000000000000000000DB
:100360000000F4010100011B0A071AFFD200021568
:10037000585CDE931B0142CC9A1325009BEDC65EB0
:1003800000000000C5000000000009FF0060525797
:100390002D424C450000000000000000000000005D
:1003A00000000000000000000000444131343538F6
:1003B00078000000000000000000000000000000C5
:1003C000000000000000000000000000000000002D
:1003D000000000000000000000000000000000001D
:1003E0000000000000000000010000CAEA80D00701
:0403F000064064322D
:020000042000DA
:100450000348854603F0B2F800480047C720020071
:100460000098002010B5114906200880FF2010498F
:10047000013008600F4988683E2290432E30886022
:100480000021052000070180028A0F231B021A4366
:1004900002820122D204032308461B038418216030
:1004A000001D9842FADB62B610BD00000034005017
:1004B00080E100E0003300501548804715480047B0
:1004C00004207146084203D0EFF30980124908471F
:1004D000EFF308801049084704207146084203D012
:1004E000EFF309800D490847EFF308800B490847EF
:1004F00004207146084203D0EFF3098008490847F9
:10050000EFF3088006490847FEE7FEE7FEE7000034
:100510006504002051040020C109002025050020A9
:10052000AD05002005221207518A8023194351820C
:10053000114903680B6043684B6083688B60C36834
:10054000CB6003690B6143694B6183698B61C0694F
:10055000C8610A48836A0B62C36A4B62036B8B6291
:10056000C36BCB62436B0B63806B4863908A8006DE
:1005700001D500BE7047FEE70018080000ED00E05E
:1005800010B51946092300222A2003F029F800217A
:1005900041708170C1700171602242718171C171BD
:1005A0000172017003F022F8002010BD816920392A
:1005B000897F042904D2A34A890051588161704778
:1005C000FEE7A248A0490161A1494161A1498161B9
:1005D000A149C1619F4938390162A0494162A049DE
:1005E0008162A049C162A0490163A049416370478B
:1005F00010B59F490020086000F0DCFA0120800758
:10060000016B49004908016310BD08B599490120F3
:10061000994E08700825358002F0EEFF03F086FA47
:1006200000F006FC9548017801709548017801704A
:10063000944801780170012002F0E4FF6F01352039
:100640003946000102F0E4FF01F0D4F800F010FC9C
:1006500000F000FA042000F0EDF8072000F0EAF8BE
:100660000A2000F0E7F8062000F0E4F80B2000F084
:10067000E1F8012000F0DEF8022000F0DBF80020B5
:1006800000F0D8F8804C206801F085F9E806016890
:10069000394301602068002801D001F02CFA00F0F5
:1006A00014F97A480068AA2805D1142000F040FA0D
:1006B000142000F04BFAFFF79BFFA220052424072B
:1006C000E082734F7888E0218843A0307880012051
:1006D00002F0A4FF02F0A8FF022803D002F0A4FF5A
:1006E000012807D13580A08A8006FCD4618A802049
:1006F0008143618204262089000621D501208007DC
:10070000006B00041CD402F095FFC00718D1042030
:1007100002F096FF054602F099FF002D10D0002050
:1007200000905A480068AA2802D1142000F00EFA5E
:100730000421684602F090FF002801D000F05CFA26
:1007400000F0ABFA0028D6D072B601F07BF805466F
:10075000042806D0022D0BD0032D09D0012862D029
:1007600066E04C480078012801D0032500E002250E
:10077000208A304320824848C069012810D9032DBF
:1007800019D102F06FFF002815D002F071FF002888
:1007900011D0032002F072FF00280CD0022007E0E5
:1007A000032D08D1032002F069FF002803D00120A7
:1007B0003A49087000E00225394801693143016176
:1007C000618A202291436182218A0222114321827F
:1007D000618A022D20D0314361827F2223889201D9
:1007E00080210B43238000235B1CDBB20A2BFBD34D
:1007F000638A10252B4363822A4B521E5A6122883A
:100800008A4322807988FF2201329143798030BF68
:100810000169B14301610BE031436182618A1022B9
:1008200091436182EEE700F038FA002800D030BF33
:1008300062B660E7C106C90E012088401A49086007
:1008400070470000E03B0020224F0200008400407F
:10085000704701DFCC7B020062B600DFD221C1808D
:10086000262E0200D220D080BC330200F8BD02DF69
:100870008C030800008000200033005000000800B6
:10088000202A0800E4900020209000201080002002
:100890002000005054020800E0010020C4060800B7
:1008A00000ED00E00080004080E200E070470000C2
:1008B0003E480178002902D08021417070473C49B0
:1008C000002008703B49C8707047384801780029FB
:1008D00002D08121417070473549012008703549A7
:1008E000C870704731480178002902D082214170D8
:1008F00070472F49022008702E490120C8707047A8
:100900002A488178002904D0491E0906090E817001
:1009100017D142780021002A04D09207920F02706A
:10092000417004E00278002A01D0521E02701206C3
:10093000120E017005D0012A02D0022A01D1D1E79E
:10094000C3E7704710B5194CA078401CA070207800
:10095000002805D102F068FE421CFFF7A9FF2270B3
:1009600010BD12490120C870704710490020C8709E
:1009700070470E48C07870470020EFF310810122C5
:1009800082F31088052212071289120605D40A483C
:10099000028901231A4302811846002900D001214F
:1009A00081F3108870470548007870470880002060
:1009B00054020800C6060800003300505E80002084
:1009C00005221207118A042319431182118A022376
:1009D000194311821189402319431181174B0121B9
:1009E0001960174B08211980518A802319435182BD
:1009F000144903680B6143684B6183688B61C3686A
:100A0000CB6103690B6243694B6283698B62C06986
:100A1000C8620D48836A0B63C36A4B63036B8B63C5
:100A2000C36BCB63436B074940310B60806B4860FD
:100A3000908A800601D500BE7047FEE780E200E0A4
:100A4000003300504018080000ED00E0AF490020DE
:100A50004860704770B50521090708893022904326
:100A60000881088980221043088108898008800055
:100A7000401C08810889082318430881A448048879
:100A8000144304804C8A9C434C820D8940242543A6
:100A90000D810D8A0426B5430D828D8AAD07FCD5E4
:100AA0009A4E0025756005880126354305804589E5
:100AB000AE05984D068801D52E4300E0AE43068072
:100AC00005887826B54328350580058806263543F0
:100AD00005804D8A1D434D820388934303800A8914
:100AE000A2430A814089800503D5894905206031E8
:100AF0008880012080070168821591430160864843
:100B000001683F2252029143421489180160016832
:100B100002031143016070BD0321804809028181F5
:100B2000082242800021491C9629FCD3828070470C
:100B30007B494880088803221043088008880422E3
:100B40001043088071490120087070477CB56F4CD4
:100B5000217800292DD072490A885207FCD4CA880E
:100B60000092898801911104019A891800916D49B8
:100B70004843009902F088FD009000202070009802
:100B8000A060009802F08DFC05462946664802F0F8
:100B90003EFC0A2102F079FC02F08AFCE060284663
:100BA00002F09AFC614A624B02F074FD02F0A8FC6C
:100BB00020617CBD10B555484168AA2905D07C202C
:100BC0005C49081802F06CFD10BDC06819210903CA
:100BD000884200D900BEFF20EB30F1E770B54C4CE5
:100BE0006088C006050F02F061FD61881E229143F6
:100BF0006A001143618070BD10B54F490120C86380
:100C0000C86B0028FCD101208007C1694B480268ED
:100C1000914201D20022026019238A1ADB019A4212
:100C200012D3016002F048FD454A1188884201D97B
:100C3000411A00E0091A89B2182905D31080012051
:100C400002F040FD02F044FD10BD08B52F4989684F
:100C500048433C4902F018FD009008BD08B52B49F7
:100C6000C9684843800A009008BD08B5274949680B
:100C7000002903D0FFF7E9FF009008BD02F02EFD28
:100C8000FAE708B521494968002903D0FFF7E6FFD4
:100C9000009008BD02F028FDFAE72B4841790129B0
:100CA00004D10079002803D0032801D00020704728
:100CB0000120704708B5254901204A695206D20F24
:100CC00013D04A699206D20F0FD000220A61009217
:100CD000FF225F32009B5B1C00939342FAD3496969
:100CE000C907C90F02D000F0E2FB002008BD014691
:100CF0000020002901D0022900D115487047401872
:100D00003721C00009014018704700000C80002006
:100D10002000005000100000000200402030005071
:100D2000001600500024F400002474497B14AE47E0
:100D3000E17A443F01120000C00000407C0408003A
:100D40007804080040420F0060800020001000502E
:100D5000183E030070B5444800220169D2430029BF
:100D600001D0114600E00121CB170C0F1B012343DA
:100D70000C0101613D490D684E682C4333430C6002
:100D80004B604369002B01D0144600E00124E317B7
:100D9000E50E5B012B4344610D6864014E682C43F2
:100DA00033430C604B60C368002B01D0144600E055
:100DB0000124E317650FDB002B43C4600D68E400DA
:100DC0004E682C4333430C604B608368002B00D18A
:100DD00001228260D017930F800018430C689200A4
:100DE0004B68224318430A60486070BD38B5002440
:100DF00003252D0202232A4604212046009402F0F6
:100E0000B7FD0022012305211046009402F0B0FD39
:100E100014232A4603210020009402F0A9FD012298
:100E20001323520202210020009402F0A1FD38BDDC
:100E300010B505242407208A022188432082A08A35
:100E40000007FCD5A08880210843A0800321092049
:100E500000F009FBFFF7B5FBFFF7C8FF608A202110
:100E60000843608210BD00003090002028900020D0
:100E700030B58D4A8D49D005048880231C430480F9
:100E80008B4C65892D0701D4521EFAD2894C012260
:100E90002260894C0A882280884A4988118001880A
:100EA0009943018030BD00207047704770477047FC
:100EB0000020704701218907086B0722104308634F
:100EC0007047704710B57F497D4808607E494C20C7
:100ED00008807D4B7D4A203B1A827E497C484880B1
:100EE0007E487D4901807C49193141802221418120
:100EF0008121890001827A4941827A4901837849B6
:100F000011314183754978482031888041217748E3
:100F1000090181807649C180754C1034C4810182F9
:100F20004182891C8182611FC182FF214631018378
:100F3000704941837049592008806F486F4C2030B8
:100F40000480432444806E4C4C82D5218180FF2153
:100F5000D33101816B4941816B4981816C496B4877
:100F6000088059486B4960384180C188102421436A
:100F7000C18062490A390181534C6749403C618014
:100F80005A82082141814D485B49008840390882D6
:100F9000494862490088088010BD4008704700B584
:100FA0008BB05F4A42625F4A82625F4A42615F4A37
:100FB000C2625F4A02605F4A02625F4A42605F4A01
:100FC000C261404A3E48002110603E484038026BF2
:100FD00003129A430263426B1F231B049A430323A9
:100FE0001B04D218426356480268C3129A43026037
:100FF000026803139A43026068464154491CC9B20F
:101000002829FAD3014628224E4802F073FBFFF745
:1010100059FF02F051FB4C490880002002F052FBBE
:1010200002F056FB0BB000BD10B5264A0F21244834
:101030000902106023484038426B1F231B049A4367
:1010400003231B04D218426300060268D208D200B0
:10105000026005200007028992089200521C02815A
:10106000028908231A430281028A0A43028237480E
:101070000068002808D10E484189890504D50188F7
:101080007822914308310180FFF71CFF3048006F40
:101090000078002804D02F4800880B496039C880A8
:1010A000012002F0BBFA10BDA0860100087F0400F9
:1010B0002000005000800040560208004A0308004B
:1010C0004C05540780000040602C00507F7F0000DA
:1010D000AC29000000220050090900000024005043
:1010E0002204000030D00000EE1100000025005066
:1010F0002E02000044200000402800500D95000002
:1011000002420000E4DC000010920000537800006E
:10111000002A00508B1000009DD5000000260050D2
:10112000A70E0020AB0E0020B10E0020B50E00204F
:10113000AD0E0020C30E0020AF0E00209B0F00203C
:101140000002004020000800780408001080002001
:10115000E00100205204080010B5044602F032FC01
:101160000C49A00040188038406B002801D080470F
:1011700010BDE106C90E012088400749086010BD76
:101180001320E9E71420E7E71520E5E71620E3E759
:101190001720E1E7D090002080E200E00B480078C3
:1011A000002802D00020C0437047012008494002B7
:1011B0000860002070470520000701883022914315
:1011C0000180018889088900018070472080002003
:1011D00080E100E0F8B58C4C20888007C00FFBD080
:1011E0000F2000F0E8F8802767808848018889048C
:1011F000FCD54188C9B20829F8D10126C6808449A6
:101200000A68002A20D04A68137805882D05FCD486
:10121000438003891B07FCD443880B68521C5B1E68
:101220000B604A60002BEED1A78001E04288C680A7
:1012300002889204D20FF9D1C680002048608A68E3
:10124000002A01D08860904701207249C0030860DD
:1012500071490860F8BD0520000781880322120249
:101260009143818081880122D202114381806748A5
:1012700001884908490001800188FF228132914399
:10128000018001884022114301800188042291439A
:101290000180018802229143018001885203114399
:1012A0000180018989088900018101885200114368
:1012B0000180018801221143018055490020086105
:1012C000C86048600860554801680902090A016061
:1012D000704710B54C4C20888007C00FFBD00F2002
:1012E00000F069F880226280484801888904FCD5B2
:1012F0004188C9B20829F8D10121C1800388DB0ADD
:10130000DB07DB0FFAD10623438003889B04FCD55F
:101310004388C1800189C908C907C90FFAD1A280D1
:1013200001203C49C00308603B49086010BD10B56E
:10133000354C20888007C00F21D00F2000F03BF8EB
:1013400080226280314801888904FCD54188C9B275
:101350000829F8D10121C1800388DB0ADB07DB0FF4
:10136000FAD10723438003889B04FCD54388C180BE
:101370000189C908C907C90FFAD1A280012010BD8F
:10138000234B5A61D960186101202349C0030860CA
:10139000704710B51E4B9A6019605860FFF7C7FF81
:1013A0000028FBD0FFF716FFFFF793FF10BD10B525
:1013B00000F009F810BDC106C90E01208840164989
:1013C00080310860704770B50123114C0F480AE066
:1013D0004188C38022691170E168521C491E226154
:1013E000E160002904D001888904C90FF0D170BDE3
:1013F00000250F202561FFF7DEFF61690029F6D087
:1014000000206561884770BD4030005000120050D8
:101410002480002080E200E000E100E00CE400E035
:1014200030B4654C64496548603409E043681A7813
:101430000A6002685B1C521E43600260002A05D0ED
:10144000A28B9207D20FF1D130BC704700224260CC
:101450004B680224A3434B6081680029F4D082606A
:1014600030BC00200847564A9269104730B5524AAE
:1014700093898024A34393810723138100239380BE
:1014800095892543958193809380108091819089DF
:10149000A043908101204B4A010311604A4908632F
:1014A000464803760361C3604360036030BD44482F
:1014B000C069004740492220086170474048006ADF
:1014C00000473F48406A00473B48A021016141690D
:1014D0008906C90FFBD041694906C90FF7D070478B
:1014E000374B9B6A1847354B5A61D96018613248AF
:1014F000012142688A430A4342607047304BDB6AED
:10150000184710B52D4CA26021606060FFF788FF7E
:101510006068002805D0284948680222904310439B
:10152000486010BD2648006B004710B5224881680E
:101530000907090F01291AD002291CD0042917D044
:101540000C2914D11D4A117E012910D141690906C7
:10155000C90F0CD00021D160116183885B085B004A
:1015600083805369002B02D001205161984710BD40
:1015700000F004F810BDFFF753FF10BD0F490E48EF
:1015800009E002680B691A70CA685B1C521E0B6185
:10159000CA60002A04D04269D207D20FF1D1704745
:1015A00000220A6143685B085B0043604B69002BC3
:1015B000F5D000204A611847001000503C80002000
:1015C0006001002000E100E080E200E0F8B50C4698
:1015D0009549164609680125002702228B1C3128EF
:1015E00073D012DC0C2874D008DC012821D002282A
:1015F00040D007284FD00B2869D156E010287FD063
:10160000112876D01228F7D18EE00123412871D01D
:1016100008DC32286FD035286ED036286DD04028AF
:10162000EAD1B3E0422869D0432868D04428E3D106
:10163000D1E006227D497E4802F062F8002808D0F9
:1016400006227B49304602F055F806202070002023
:10165000F8BD754801680878C00738D0207806289A
:1016600001D22770C4E006223046983102F042F8D9
:1016700006200EE00A786C48920728D522783E2A88
:10168000EFD305464A7E30465A3102F033F82868D7
:10169000407E2070A9E00878400718D520780228FD
:1016A000DFD3887C3070587C7AE00A785E48120775
:1016B0000DD52278202AD4D30546CA7D30461A316A
:1016C00002F018F82868C07DE3E736E001E079E031
:1016D00016E00A785448D20674D52278202AC0D35E
:1016E00005460A7E3046983102F004F82868007EEC
:1016F000CFE70FE056E02AE036E03DE05AE062E056
:101700000878800672D520780428AAD304223046AF
:10171000091D25E00878400668D52078002867D0A4
:10172000087D08E0227060E0087800065ED5207829
:1017300000285DD0487D3070F4E70888C00555D595
:10174000207804288DD3042230460C3108E0088824
:1017500080054BD52078042883D3042230460831F5
:1017600001F0C8FF042094E7088840053ED52078A2
:1017700000283DD0887D36E00888000536D52078E1
:1017800002288DD3087C3070487C09E00888C004AA
:101790002CD5207802288ED38231087F3070487F84
:1017A0007070BFE70888800420D5207800281FD0FB
:1017B000A03117E00888400418D52078002817D0F9
:1017C000A1310FE012E0088800040FD5207800282E
:1017D0000ED0A23106E00868C00307D520780028A3
:1017E00006D0A33108783070237000252846F8BD54
:1017F0000425FBE770B50F480F49C40522888025F2
:101800002A4322800D4A53891B0701D4401EFAD275
:101810000B4A012010600622054801F06BFF20886A
:10182000A843208070BD0000C0060800383E0300B9
:1018300058800020A0860100D47F040020000050C2
:1018400000800040F0B5844D85B0686D834C002663
:101850000190207937463146022800D10191804815
:1018600002688048002A0FD10278002A0DD07E4AF3
:101870000123D363D36B002BFCD101229207D269E1
:101880001923DB019A420ED3017001F03FFF0028BB
:101890007ED0E078012600287AD005200007808AD3
:1018A000C00701D0042673E001F0C4FE00286FD108
:1018B0006E4800683F2804D12079002801D1286DA6
:1018C0000190A17801A801F027FF002860D0A1783D
:1018D00001A801F0C1FE00285AD0644800683F28E2
:1018E00003D100F093FD002852D05D480068AA287B
:1018F0001DD0972007210125AD07EA6B920A9202BD
:101900007F1C3A43EA63EA6B594B80021A40024358
:10191000EA63E86BC002C00A49050843E86350481F
:1019200004260068002807D0AA280FD01DE05148DF
:10193000FFF79BF90321DEE701986421C00201F063
:10194000A3FE2179401E0CE001210CE0019801F07A
:10195000A8FD4949096801F01DFD01F0A9FD0090AD
:1019600021790029F0D101F0DDFE4448C06A8047AA
:10197000286B0004C00FFBD041480168C905FCD5A5
:1019800001F0D6FE052000070189802291430181E4
:10199000304605B0F0BDFEB5054601266846067026
:1019A00006212E4801F0CAFE36490420087001F0D5
:1019B000CBFE2E4CE06DA16D82B2002001F0CAFE7C
:1019C000606E216E82B2012001F0C4FEE06EA16E55
:1019D00082B2022001F0BEFE606D216D82B2032052
:1019E00001F0B8FE254801F0BBFE1F488038416B6E
:1019F0001F2212049143032212048918416300F04C
:101A000045F801AA6946112001F0B0FE002811D165
:101A10006846007900280DD0104C02AAE67069468D
:101A2000122001F0A3FE002804D16846007A0028A5
:101A300000D02071002D02D0284600F05CF8124939
:101A400000200870FEBD10B5012001F095FE01F0E8
:101A500099FE00F003FD10BD60020020C6060800DC
:101A60001080002000800020C000004060010020A5
:101A7000FF03E0FF011200001C8000201C0708008B
:101A800000020040C5060800C40608007CB501F04D
:101A90007FFE002001F082FE00F05BF9002001F0E3
:101AA00083FE01F087FE01F08BFE01F08FFE042023
:101AB000694608716A4601A9312001F057FE7E4946
:101AC000002802D0002008617CBD6846C578847873
:101AD000427803780120C0072D0628430125ED0533
:101AE0002843240420432C12204312021043802256
:101AF00010431843E7E710B504467048844202D00B
:101B00006F48844203D1204601F066FE10BD6D4847
:101B10000123C06D002281B22D2001F061FD6A49D0
:101B2000CC4201D10121017001F060FD10BD10B562
:101B30000124A407A06BFFF7A4F8644901F0A4FDF9
:101B400027221201511A00D101215B4A5060116015
:101B5000206B082188430843206310BD38B500205E
:101B600000905B4908200880052424072188302044
:101B700001432180218803221143218002E000BF1C
:101B800000BF00BFA18A0906F9D5618989088900CB
:101B9000618150494A88520852004A802188814315
:101BA00021802088800880002080A08A400701D5FD
:101BB000FFF73EF92089802108432081208A0421F3
:101BC00088432082A08A8007FCD5434841050268EB
:101BD000D20202D40A69520702D4009A002AF6D02F
:101BE00038BD10B501F0FEFD01F002FE10BD10B5CC
:101BF00001F004FE05200007418A802291434182C2
:101C000033480189490849000181344800683F2868
:101C100001D100F07EFD012080078169042211437B
:101C20008161FFF710FF01F0EFFD01F0F3FD2C489B
:101C30000068AA2802D11420FEF77AFF2949002063
:101C4000087010BD10B501F0EBFD10BD10B50120FE
:101C50008007008A000704D501F0E8FD2149032030
:101C6000087010BD70B52048008885061A48AD0E72
:101C7000446814488038006F0078002802D1284654
:101C800001F0DAFD19480089164EC00507D5200677
:101C90000BD5E00709D0284601F0D4FD03E020066B
:101CA00003D5E00701D002203070200403D5E00501
:101CB00001D50120307070BD40000040A5A5A5A54C
:101CC000C3C3C3C3600200200E0D0D0D71020000DE
:101CD000003300502000005000020040600100204E
:101CE000108000205E80002000200050002C00505A
:101CF000F948406C004770B5032001F0A9FDF74991
:101D00000120487108465430054601F0A7FD0446FD
:101D10000079022808D001F0A7FD002810D001F0BA
:101D2000A9FD002804D00BE0A07D01F0A9FD07E08B
:101D3000082001F021FD04223C21E94801F0A6FD24
:101D4000204601F0A9FD2868002801D000F0ECFC35
:101D500070BD10B5E14CE34920603C2001F0A2FDCC
:101D600000213C2001F0A4FD00F0D3FC20465430BB
:101D700001F0A4FD0020E0600A20A071DA490320F0
:101D800001F0A2FD10BD10B504460146D348543001
:101D900001F0A0FDD1484079012802D1204600F091
:101DA000C3FC10BD70B5FF2201231146002001F0D5
:101DB00017FCCA4C0146A279401F521CA2710E2288
:101DC000027004224270C54DA479847020356C7F66
:101DD000AD7FA4022C43C470240A04710124447111
:101DE00010390423DB430A714B710620C880084672
:101DF000FFF7C9FF70BDB94900B52031CA7F012086
:101E0000002A29D0B54A4B7F114640312032927FBB
:101E10000978052B49D00EDC012B17D0032B1ED0DF
:101E2000042B19D1130001F05BFD0A173D3D3D174E
:101E30003D1717173D17082B3CD03F2B0CD1A94855
:101E40002F30401E105C814207D804E0062A11D0D2
:101E50001D2A01D12BE0012000BD002000BD312A48
:101E600017D00ADC012A11D0032A1BD0082A1ED061
:101E70002D2AF3D10329F0D8EDE7332A0CD0352AE7
:101E80000DD06C2A0ED06D2AE8D110E00829E4D8D4
:101E9000E1E70129E1D8DEE70729DED8DBE7FD2904
:101EA000DBD8D8E70029D8D1D5E7052AD6D1022931
:101EB000D3D8D0E78B481030C3E7884810B56030DE
:101EC000447801220178002C07D00023012C08D08F
:101ED000022C11D0032C13D116E0012906D1427037
:101EE0000EE0032906D001290AD04370042001F036
:101EF000FDFC10BD022102E00C2907D10321417035
:101F0000042001F039FC10BD002902D00129ECD1D8
:101F1000E5E70421F3E7014610B50020FF2204465F
:101F20000B0001F0DDFC1F59115959591317591BAA
:101F30001D212327295959592D2F33373B40435908
:101F4000454A4F59525659000A2010E00D203C22B4
:101F5000062441E00E203C2210243DE0102000E049
:101F600011203C22202437E012202FE013203C22B5
:101F7000082431E0142013E015203C221A242BE021
:101F8000192000E01A203C22072425E03C22574873
:101F90000E2421E01B203C2205241DE05348401C58
:101FA0003C22022418E05148801CF9E71C20D8E7A5
:101FB0008120C0003C221C240EE04C483C22001D25
:101FC000122409E04948401DEAE71F203C22012471
:101FD00002E020203C220324404923464031097876
:101FE000994200D90B46810A01F0FAFA10BD014668
:101FF00010B50020FF220446302939D00CDC0B003C
:1020000001F06EFC125E15181C5E5E1F22272C313B
:102010005E5E5E5E5E5E5A5E31390B0001F060FC12
:102020000B2B30505033383B3E4144475000032087
:10203000800222E03C222E48882441E02C48401CAB
:102040000EE02B48801D06E029483C22C01D8C2450
:1020500036E0274808303C220C2431E02448801C1C
:102060003C2202242CE022483C22C01C842427E08D
:102070001F480C30F4E71E480D303C2208241FE0B6
:102080001B480E3001E01A4811303C22062417E0AC
:10209000174812300DE016481330E1E714481430A9
:1020A000DEE713480A30DBE711480B30E5E710485C
:1020B00015303C22042403E00D483C22001D01247D
:1020C0000649234640310978994200D90B46810AD6
:1020D00001F086FA10BD0000600100206080002041
:1020E00001F00000103C0020F11C0020050400005D
:1020F000010C000010B5FD4A0020547F917FD27F73
:10210000002A3DD0F94A20321378052C23D007DC71
:10211000012C0DD0032CDDD1084600F0A3F9D9E73E
:10212000082C29D03F2CD5D10846FFF760FFD1E716
:10213000062903D01D2906D00020CBE7012080020C
:102140003C22042102E0EA483C2202218B4200D8D2
:102150000B46810A0DE00024FF222046052903D109
:10216000E34C3C22E41C0220834200D80346A10A2F
:10217000204601F035FAADE70846FFF7CCFEA9E7A7
:10218000FFF710FED9481038A4E710B5D94801F080
:1021900065FBD64C203CE064002808D0D6498088F6
:1021A000496A2A2250430818001DE06092E7CF4890
:1021B0000123203000793C210002401C82B2CC482F
:1021C000143001F00DFA0121017001F00FFAC74837
:1021D0001038E064E9E710B5C4490C46203CA37907
:1021E0004A7F887F5B1EA371C97F00294DD0052AD5
:1021F00031D00EDC032A1AD0042A2CD10024FF226D
:10220000030001F06DFB0A241A1C1E242024242440
:102210002224082A20D03F2A1DD10023FF22122881
:102220002DD01CDC05281FD010282BD11EE0002348
:10223000FF22032826D1012323E0052406E00624FB
:1022400004E0072402E0082400E009243C22A10A5B
:10225000204601F051FB3DE700F038F93AE733281A
:1022600007D034280ED107E0A44B0AE0A34B1B1D76
:1022700007E0C1231B0104E0A04B0B3301E09F4B9F
:1022800011333C22990A1846E3E7FFF78BFD21E75B
:1022900010B5302838D00CDC030001F021FB1218F7
:1022A00015191D18182125292D3118181818181856
:1022B00055183138030001F013FB0B2B470A0A2F86
:1022C0003337373B3F430A00084600F051FB01E734
:1022D000084600F05CFBFDE6084600F06EFBF9E600
:1022E000084600F073FBF5E6084600F089FBF1E6CE
:1022F000084600F0A6FBEDE6084600F0B3FBE9E671
:10230000084600F0B8FBE5E6084600F0CCFBE1E645
:10231000084600F0CCFBDDE6084600F0CCFBD9E631
:10232000084600F0CCFBD5E6084600F0CCFBD1E631
:10233000084600F0CCFBCDE6084600F0CCFBC9E631
:10234000084600F0DCFBC5E6084600F051FAC1E69D
:1023500070B5664A01461546203DAC79537F907FA3
:10236000641EAC71D27F002A16D0052B2BD00DDC59
:10237000012B12D0032B0FD1312818D011DC0128EA
:1023800015D0082809D02D2806D106E0082B1DD02D
:102390003F2B01D1FFF77CFF70BD084600F02CFAFF
:1023A00070BD332807D0352809D06D28F8D10846EC
:1023B00000F01EFA70BD084600F03DFA70BD0846F8
:1023C00000F047FA70BD0528FCD1E6E700F0BBF845
:1023D00070BD10B5454C0C23203420793C220002FE
:1023E000401C81B242480A3001F0FAF8A18801800D
:1023F000A179817021891B2900D91B2181803B494A
:102400002039C96C816001F0F1F863E63C48806CCA
:102410000047364810B5203841790024012907D1FA
:102420000079002801D0032802D100F0A3F9044666
:1024300001F020FA00280BD03248002C03D03C21B8
:1024400001F060FA06E002223C2101F01FFA03E0ED
:10245000002C01D001203DE600203BE610B500F045
:1024600084F937E60146002010B5FF2203463129E2
:1024700019D006DC012909D008290AD02D291BD141
:102480000CE0332913D0352916D112E03C22082361
:1024900012E017483C22401C02230DE014483C2265
:1024A000801C042308E002203C22012304E00320D6
:1024B000ECE704203C2222230C4920310978994280
:1024C00000D90B46810A01F08BF803E6014610B5EE
:1024D0000020FF220F2928D016DC02291DD0032955
:1024E0001DD007291DD00E2929D11CE08080002095
:1024F000010400005802080058030800060C000000
:102500006001002001F00000102910D0182910D01F
:102510001C2910D01F2912D10FE00B200EE00C2037
:102520000CE00F200AE0162008E0172006E0182033
:1025300004E01D2002E01E2000E021203C22810A50
:1025400001F0DAF9C6E510B5030001F0C9F91F146E
:10255000111414141119141111111D112114141432
:102560001111251115151114291515141111140027
:10257000084600F03DF9ADE5084600F03DF9A9E553
:10258000084600F07FF9A5E5084600F07FF9A1E5CF
:10259000084600F08DF99DE5084600F0ABF999E595
:1025A000084600F0C6F995E510B581480123C06DD5
:1025B000002281B22D2001F013F80024047001F0F4
:1025C00015F87C48447000F0DAF8042001F08EF928
:1025D00010BDF8B5012843D0764E0127603E314644
:1025E000084632790830C979002A10D0354620359E
:1025F000012A1BD0022A5DD0032A07D1FFF75DFC18
:102600006C484078042868D000F0B9F8F8BD01297A
:1026100001D0022924D1684A515C377132681368AD
:10262000664A9847042001F0A7F8F8BD614C603C69
:1026300020894034012916D00229F6D1717A00058B
:102640000909A171000DA08020464038C17A827A24
:10265000080210432081FFF798FD20891B2825D907
:10266000FFF7A2FFF8BD0021534AE977921D4B0006
:10267000D35A834201D1EF7702E0491C4729F6D3B0
:10268000810A6977A877B07A2070FFF7B4FB002839
:10269000E6D02078002806D0FFF72CFDF060002857
:1026A000E0D0207803E0FFF796FD10E0C0B200F024
:1026B00070F8F8BD3F486038C06801290AD0022987
:1026C000F7D13C495039884201D0FFF782FE00F033
:1026D00009F8F8BDFFF73CFEF9E7EF770320A8778C
:1026E0006877E0E7334810B5002160380171016870
:1026F000324A0B680121C01D9847042001F0F6F80A
:1027000010BD10B5032001F003F9022001F0EEF82E
:1027100010BD10B5274C603C2068806880470120C0
:102720006071FFF7DFFF10BD70B504460279052127
:1027300010306156022A06D1214A8079926A2E23EE
:102740005843101808300D18022001F015F8681EC3
:102750002179184A01700021603A51711268E188AC
:102760005368184A491C984770BD12486038006881
:10277000806800470F4860380068C06800470D480F
:1027800003216038017100680C4A0368012109487F
:1027900018470146074830B4022260380271C36806
:1027A0000068064A04681846A44630BC604700002A
:1027B00060020020C08000202C3F0020D325002094
:1027C000580308000327002010B504460623012201
:1027D0003C21FE4800F004FFFD494A7F897F9202B8
:1027E0000A43028002218170848000F0FFFE10BD48
:1027F00010B500F0FBFE10BDF8B506460546407862
:1028000031780402F348103DC0690C43A0420BD953
:1028100027027F1CB8B201F081F8002804D06F8134
:10282000304600F0E3FEF8BD284601F035F82046BA
:10283000FFF7CAFFF8BD10B5827943791102194339
:10284000C1800279C37811021943818000F0CEFE65
:1028500010BD70B5027810E093001B18591E1C784B
:102860000D7821022943540025182982DB1E59784E
:102870001B78090219430153521E002AECDC00F0B8
:10288000B5FE70BD10B500F0B1FE10BD10B5817978
:10289000C171417981710279C37811021943818034
:1028A0008278437811021943418000F09FFE10BDE9
:1028B00010B5027EC37D110219430183827D437DE1
:1028C00011021943C182027DC37C11021943818226
:1028D000827C437C110219434182027CC37B11023A
:1028E00019430182827B437B11021943C18100F0AD
:1028F0007DFE10BD70B5B749054604460088C9691C
:10290000103D88420ED20002401C80B201F006F851
:10291000002807D020780002401C6881204600F083
:1029200065FE70BD284600F0B7FF2088FFF74CFF1A
:1029300070BD70B5A749054604460088C969103DB9
:1029400088420ED20002401C80B200F0E7FF00284F
:1029500007D020780002401C6881204600F046FE27
:1029600070BD284600F098FF2088FFF72DFF70BD4E
:1029700010B54178027809021143C27883781202B7
:102980001A4312040A43026000F030FE10BD10B575
:1029900004464279811D084600F0ACFE607821783B
:1029A00000020843E178A2780902114309040143B7
:1029B0002046216000F01AFE10BD10B54178027863
:1029C00009021143018000F011FE10BD10B582799B
:1029D000437912021A43037AC47919022143090484
:1029E000114381608278437812021A430379C478D4
:1029F0001902214309041143416000F0F7FD10BDA5
:102A000030B54579A1B00446811D2A46684600F0DC
:102A100071FE60792072A0786278000210432279FA
:102A2000E3781102194309040143616020462A46F4
:102A30006946093000F05EFE204600F0D7FD21B067
:102A400030BD10B5417901728278437812021A4381
:102A50000379C4781902214309041143416000F04D
:102A6000C5FD10BD10B541780278090211430180FF
:102A700000F0BCFD10BD30B58578A1B00446C11C86
:102A80002A46684600F036FEA5706078217800027C
:102A9000084320802A466946E01C00F02BFE2046B1
:102AA00000F0A4FDCBE710B500F0A0FD10BD10B5FF
:102AB00000F09CFD10BD10B500F098FD10BD10B5E4
:102AC00000F094FD10BD10B500F090FD10BD10B5E4
:102AD00000F08CFD10BD10B5C17883780A021A434E
:102AE000417903790902194309041143416041788E
:102AF000027809021143018000F078FD10BD10B585
:102B000000F074FD10BD70B5314B0246203B997941
:102B10000B30491C9971157B00212D060C462D0E9A
:102B200004D0012D08D0032D0ED118E011892A4AB6
:102B3000C900FF39113904E01189CA002749511829
:102B4000274A8A18518854780E220270E21C42707B
:102B50009A798270C01C00F0B5FA601D70BD1189B1
:102B6000CA0020495118204AEBE710B51446184A0C
:102B7000203A93795B1C93710E23C372E31C037399
:102B8000927942730E3000F09DFA601D10BDBAE7D5
:102B900010B504461030421C4188104600F092FAED
:102BA0002046FFF7B0FF10BD70B50646103605464B
:102BB000B41C418A204600F085FAE41CF1882046C6
:102BC00000F080FAA01C318910E000002104000010
:102BD00080800020E00100207C3C0020A0DFFFFF7F
:102BE000AC3D0020409FFFFF643E002000F06AFAE9
:102BF0002846FFF788FF70BD70B5064610360546BB
:102C0000741C418A204600F05DFA3079A070284695
:102C1000FFF779FF70BD70B5064610360546741C87
:102C2000418A204600F04EFA3079A070E41CF18809
:102C3000204600F047FAA01C318900F043FA2846EC
:102C4000FFF761FF70BD70B5064610360546741C6F
:102C5000418A204600F036FA3079A0702846FFF706
:102C600052FF70BD70B5064610360546741C418A89
:102C7000204600F027FA3079A0702846FFF743FF7E
:102C800070BD70B5064610360446751C418A28464C
:102C900000F018FA0020AD1C311809792970401C89
:102CA0006D1C0528F8DB2046FFF72DFF70BD10B521
:102CB00004461030421C4188104600F003FA2046BA
:102CC000FFF721FF10BD10B504461030421C4188AB
:102CD000104600F0F7F92046FFF715FF10BD10B5BC
:102CE00004461030421C4188104600F0EBF92046A3
:102CF000FFF709FF10BD10B5F44B00219A79521C63
:102D00009A71027B1206120E04D0012A0AD0032AFD
:102D100017D10FE00189EE4AC9008918FF394139FE
:102D2000498E0EE00189EB4AC9008918EA4A8918E0
:102D3000498C06E00189E94AC9008918E84A8918DE
:102D400049880F24C4720246042404730B32007CA9
:102D50009070D01C9A790270401C00F0B3F90620E4
:102D600010BD70B50446D9480B348179651D491CE6
:102D700081710E212170062161708079A070E41CA0
:102D80002988204600F09EF9A41CA9782170601CB7
:102D9000A98800F097F9082070BD70B50546103578
:102DA000AC1E0520207004206070E41C6988204659
:102DB00000F088F92879A070062070BD70B50C214C
:102DC0008173054608211035C1736C1C418A204669
:102DD00000F078F92879A070E41CE988204600F01A
:102DE00071F9A01C298900F06DF90A2070BD10B599
:102DF000112282730222C273018A103000F062F93C
:102E0000042010BD70B505461035AC1E082020709A
:102E100004206070E41C6988204600F053F928798A
:102E2000A070062070BD10B5302282730322C273D9
:102E3000418A113000F046F9052010BD1021817340
:102E40000121C173032070471A2181730121C173CD
:102E500003207047FEB501460E31067C1320087032
:102E6000B0000190401C8D1CCC1C487000270EE067
:102E70007800401900904188204600F023F900981E
:102E8000A41C8188204600F01DF9A41C7F1CB742B9
:102E9000EEDB0198C01CFEBD3E2282730146132268
:102EA0000E31C2731030807C0875152070473E21AA
:102EB00081730A21C1730C2070473E2181730C215C
:102EC000C1730E207047F0B5064610368DB0B11EA6
:102ED000407C0B903E204C1C087002200D1D207081
:102EE00000273BE029207843811929226846891C64
:102EF00000F000FC68460078287020786A46401C84
:102F000020706846407868702078401C207000204F
:102F1000AD1C111889782970401C6D1C0628F8DB3F
:102F20002078801D207008A8007A117A84462970C4
:102F30002078401C2070002003E013185B7A2B706F
:102F4000401C6D1C8842F8DB2078401820706046D9
:102F5000287020786D1C401C20707F1C0B988742C5
:102F6000C0DB20780DB0801CF0BD70B504460E307B
:102F70003E2101700D214170C51C618A2846103424
:102F800000F0A0F8A81C0021621812790270401C01
:102F9000491C0829F8DBA18900F094F80F2070BDC6
:102FA00010B5417C891CCAB24E49FFF7DEFD10BD49
:102FB00010B5417C891CCAB24A49491CFFF7D5FDAE
:102FC00010BD10B5417C891CCAB24649C91FFFF724
:102FD000CCFD10BD70B5044605461034418A264626
:102FE000113000F06FF87068E070010A2171010C77
:102FF0006171000EA0712846FFF785FD70BDF8B520
:1030000004461134671E064600256800C019418831
:10301000204600F057F86D1CEDB2A41C042DF4D32B
:10302000F8682070010A6170010CA170000EE07058
:103030003046FFF768FDF8BD10B5044610304188F2
:10304000401C00F03FF82046FFF75DFD10BD70B555
:10305000044605461034418A2646113000F032F805
:103060007068E070010A2171010C6171000EA0719D
:103070002846FFF748FD70BD10B504461030418862
:10308000401C00F01FF82046FFF73DFD10BD70B555
:1030900004461549807D896A2E22504310340E184B
:1030A0002188A07809050003090D084381B2361D67
:1030B000A588304600F006F8B01CA18800F002F8A0
:1030C000281D70BD0170090A4170704760800020A2
:1030D0007C3C0020AC3D002080DFFFFF643E0020F0
:1030E000409FFFFF08FC000058030800F8B50646A3
:1030F000103929480C46864207D10846FFF7C7FF1A
:10310000E08002202071801F1FE0B00A0427F50034
:10311000002804D001280DD0032817D11DE01F4836
:10312000FF3D113D2818416820468847E0802771FF
:103130001A4809E01A482D181A48281841682046EC
:103140008847E08017482771405D60711648C06D60
:10315000282816D9B10A0BD00FE014482D181448AE
:103160002818416820468847E08027711048EBE71F
:1031700021898905890D472901D0322801D90020EC
:10318000F8BD2046FEF7FFFD0120F8BD10B5082070
:1031900000F0ACFB002010BD220400007C3C0020AD
:1031A000A0DFFFFFAC3D002060800020409FFFFFBC
:1031B000643E0020FFB50646807A81B0012805D024
:1031C000022340490D68002D02D006E00023F8E7F5
:1031D000022870D0012871D03B4D3C4CF288A08B66
:1031E000B18880B200F0A0FB0090E0694E2304217A
:1031F00058434B042268C0181152E0694E235843CB
:10320000344B22683249C0181152E0694E23717A5A
:103210005843304B090255319B1E2268C018115289
:103220000098E26940304E2741887A431B11294FAC
:1032300019433F1D2368D2199952E1694E277943FA
:10324000244F4B2252010C372368C9195A52214688
:103250004031E269097B4E27049B7A4309021D4FE6
:103260001943BF1C2368D21999522368E1694E247F
:103270006143184C0022143409195A52164A9621F7
:1032800011631549327A40390A610D620499417619
:103290000299009800F04EFB0398002803D00146E5
:1032A000009800F047FB009800F04AFB009805B03A
:1032B000F0BD00E002E0FF25F5358EE7024DFA3D56
:1032C0008BE7000004800020DC050000E001002006
:1032D000278000000A000800C000004070B5EFF32E
:1032E0001085012080F31088264800F0B7FA0446C4
:1032F000002D1DD0012080F31088002C23D0204603
:103300002038C08B204988421DD16189208900F076
:103310001DFB05000ED021461031A389628920894A
:10332000A847002806D001280DD002280BD105E0BF
:103330000020E0E7204600F0AFFA04E01148214603
:103340000C3000F0C7FAEFF31084012080F31088EE
:103350000C480068002802D1012000F079FA002C06
:1033600003D0012080F3108870BD0020FAE710B56B
:10337000BC21064800F0F0FA0549012000F0A4FA4B
:1033800010BD0000A80508003883000004060800EE
:10339000DD320020024670B54A40D30FDB07400003
:1033A0002DD04A002AD0010E140E00021202091973
:1033B000400A520A8418E50104465443000A120ADE
:1033C0002E045043A4194219200CC543AA18120C0C
:1033D0000125AD03521C521912047F39240400D078
:1033E000521C104301D44000491EC2B20C06C00951
:1033F0002018401C4008802A02D003E0002070BD45
:1034000040084000002900DA0020184370BD70B564
:1034100002464A40D50F40004A00ED0740085208D6
:10342000002814D0002A12D0C40DD30D410201206F
:10343000C0055202490A520AE41A091812187D34CA
:10344000914201D3641C00E04900002C01DA002005
:1034500070BD0023914201D3891A034340084900FB
:103460000028F7D100290AD0914202D10121C907D1
:1034700005E0914201D2012101E00121C943E005AB
:10348000C018401900F058F870BD420005D0420045
:10349000120E52428A4201DB00207047C90508180B
:1034A000704710B500229623114600F04DF810BD6C
:1034B000410040020122400AD205090E80187F29EE
:1034C00001DA00207047962903DC9622511AC84081
:1034D0007047963988407047C20FD20740004008B5
:1034E0000BD0C10D0723DB01C91840020905400AB2
:1034F0001143C2084007114370470020014670473E
:10350000CB0FDB07490010B5490802460A4307D034
:103510000A0D07240903E401090B121B002A01DC30
:10352000002010BDC900440F0C43C100E018D205B3
:10353000801800F001F810BD002904DA401C490091
:1035400001D140084000704770B40024050C05D13B
:103550001024000402D1002921D01124050E01D12C
:1035600000020834050F01D10001241D850F01D18F
:103570008000A41C002801DB4000641C002908D046
:1035800020252E1B0D46F540A14000D001212943E6
:10359000084301061B1B000ADB1D02D5002070BC7E
:1035A0007047DB05181880180029F8DA401C49001C
:1035B000F5D170BC4008400070470000064C012562
:1035C000064E05E0E36807CC2B430C3C98471034CB
:1035D000B442F7D3FCF740FFD83F0020084000205A
:1035E00003B40148019001BDB123030003B40148B5
:1035F000019001BDE123030003B40148019001BD26
:10360000551B020003B40148019001BD0F3B0300AC
:1036100003B40148019001BDCF2B030003B401485E
:10362000019001BD0990020003B40148019001BD61
:103630001F21020003B40148019001BDC12D030008
:1036400003B40148019001BD0921030003B40148FE
:10365000019001BDC92D030003B40148019001BDD3
:103660002B69020003B40148019001BDEB31030056
:1036700003B40148019001BD3D32030003B4014889
:10368000019001BDD721030003B40148019001BDA1
:10369000A73A030003B40148019001BD913B030028
:1036A00003B40148019001BD2F2F030003B401486A
:1036B000019001BD998F020003B40148019001BD42
:1036C000938F020003B40148019001BDCD8C02002C
:1036D00003B40148019001BD418F020003B40148C9
:1036E000019001BD2768020003B40148019001BDAB
:1036F0003968020003B40148019001BD213B030079
:1037000003B40148019001BD773B030003B40148B5
:10371000019001BD7920030003B40148019001BD6F
:103720002129030003B40148019001BDC7680200CC
:1037300003B40148019001BD0D2C030003B40148FE
:10374000019001BD533B030003B40148019001BD4A
:103750000D20030003B40148019001BD8D21030039
:1037600003B40148019001BDBD2C030003B401481E
:10377000019001BDD129030003B40148019001BDAE
:10378000B72E030003B40148019001BDEF680200A9
:1037900003B40148019001BD4121020003B4014876
:1037A000019001BDCD20020003B40148019001BD8C
:1037B000D149020003B40148019001BDB5280200BF
:1037C00003B40148019001BDA16A020003B401489D
:1037D000019001BD3D23020003B40148019001BDE9
:1037E0005123020003B40148019001BD15310300CB
:1037F00003B40148019001BD1B66020003B40148F7
:10380000019001BD652C030003B40148019001BD86
:10381000231D020003B40148019001BDC32C030025
:1038200003B40148019001BD3B66020003B40148A6
:10383000019001BD2B66020003B40148019001BD57
:10384000038D020003B40148019001BDCF8F020037
:1038500003B40148019001BDDD20030003B4014819
:10386000019001BDBF22020003B40148019001BDD7
:103870003F2F030003B40148019001BD472F03000F
:1038800003B40148019001BD0522020003B40148C0
:10389000019001BD2528030003B40148019001BD3A
:1038A0003524030003B40148019001BD87250300BE
:1038B00003B40148019001BD3126030003B401485F
:1038C000019001BD2522020003B40148019001BD11
:1038D0009D20030003B40148019001BD2F22020086
:1038E00003B40148019001BDFD3D030003B401484C
:1038F000019001BDED2E030003B40148019001BD0C
:103900000D24030003B40148019001BDA528030064
:1039100003B40148019001BDB120030003B4014884
:10392000019001BDB326030003B40148019001BD1D
:10393000CD65020003B40148019001BD535402005B
:1039400003B40148019001BD2D54020003B40148A5
:10395000019001BDEB26030003B40148019001BDB5
:10396000533B030003B40148019001BD8D3D0300AA
:10397000FFB581B00C4605460A461F4601200021CE
:103980000A9EFFF7EFFF2A01FFF7ECFF0C4B1A68C6
:103990005B6810401940084300D100BE002E21464C
:1039A000284602D000F05AF801E000F079F83B46D2
:1039B00021462846039A00F095F805B0F0BD0000B6
:1039C0002890002010B5244CE389012211461338B9
:1039D00081408B43C80701D0002038E0880701D51B
:1039E000012034E0480701D5022030E0080701D566
:1039F00003202CE0C80601D5042028E0880601D564
:103A0000052024E0480601D5062020E0080601D55F
:103A100007201CE0C80501D5082018E0880501D55D
:103A2000092014E0480501D50A2010E0080501D559
:103A30000B200CE0C80401D50C2008E0880401D557
:103A40000D2004E0480401D50E2000E00F20824044
:103A50001343E38110BD00000014005070B504460C
:103A60000D460A4601200021FFF77CFF2201FFF7E7
:103A700079FF094A1368526818401140084300D181
:103A800000BE032C00D10424044960014018012128
:103A9000A940418070BD00002890002000300050F7
:103AA00070B504460D460A4601200021FFF75AFF73
:103AB0002201FFF757FF094A136852681840114066
:103AC000084300D100BE032C00D104240449600146
:103AD00040180121A940818070BD0000289000207D
:103AE00000300050F8B5164604460D460A461F46FB
:103AF00001200021FFF736FF2201FFF733FF094BBA
:103B00001A685B6810401940084300D100BE032CBE
:103B100000D10424044960014018690008183E439C
:103B2000C680F8BD2890002000300050FEB500206F
:103B3000214E034628220021424392198C00491C41
:103B400013510A29FADB401C0428F3DBFDF702F9C4
:103B500019480022083802604260154600241748C0
:103B60006900475A0120A04080B207421CD028209B
:103B700068438019A1004058411C19D0002810D07A
:103B8000C1172246FFF7EEFE2A01FFF7EBFE0A4BB4
:103B9000083B1A685B681043074A1943083A1060EB
:103BA0005160641C0A2CDDDB6D1C042DD6DBFEBDD0
:103BB0000095019400BEE3E730900020063C002011
:103BC00002E008C8121F08C1002AFAD170477047E6
:103BD000002001E001C1121F002AFBD17047000044
:103BE00081050020B5310020BF3302000000000035
:103BF0000101000A04280A040203AA0055032A004E
:103C0000A001FFFF2C01FF003F00FF03FF010000A8
:103C100000000000D03F0020C4800020010001000F
:103C200008000000060F0020200107021900000014
:103C300007070E05020220001C1202000103000605
:103C400087020000098606028300000000000001D0
:103C50000000000000000000000000000000000064
:103C6000000000000000000000000000000002084A
:103C7000060000050302020208030000FB01000029
:103C80008F2B0020FB01010C8F2B0020FB01030C6C
:103C90008F2B0020FB01310C8F2B0020FB01330CFC
:103CA0008F2B0020FB01350C8F2B0020FB0901100E
:103CB000A92B0020FB4102108F2B0020FB090310D1
:103CC0008F2B0020FB080510172C0020FB07091084
:103CD0008F2B0020FE0100003D2E0020FB01012063
:103CE0008F2B0020FB040220652C0020FB09032001
:103CF0008F2B0020FB0105208F2B0020FB010620CD
:103D00008F2B0020FB0207208F2B0020FB010820B7
:103D10008F2B0020FB0109208F2B0020FB010A20A4
:103D20008F2B0020FB010B208F2B0020FB010C2090
:103D30008F2B0020FB010E208F2B0020FB020F2079
:103D40008F2B0020FB0110208F2B0020FB01112066
:103D50008F2B0020FB0112208F2B0020FB01142051
:103D60008F2B0020FB1117208F2B0020FB09182020
:103D70008F2B0020FB091C208F2B0020FB011D2016
:103D80008F2B0020FB011E208F2B0020FB031F2008
:103D9000DF2C0020FB000D20F72C0020FE0000008F
:103DA000992E0020FE000000C72E0020FB00060414
:103DB000F72C0020FB001D04F72C0020FB03080C4F
:103DC000912B0020FB042D0CF92B0020FB04051483
:103DD000472C0020FE0000009B2D0020FE001D044B
:103DE000BD2D0020FE000000EF2D0020FE00000091
:103DF000552E0020FE010000492E0020FE0419204F
:103E0000052E0020FE001920272E0020FB00132085
:103E1000F72C0020FB081520832C0020FB00162027
:103E2000F72C0020FB001920F72C0020FB031A20A0
:103E3000AF2C0020FB031B20C72C0020FE0013200A
:103E4000AF2E0020FE0C1620BB2E0020FE0D000021
:103E50006B2F0020FB010000632D002000000000FC
:103E600000000000FB000000C32F0020FB0102FC4B
:103E70008F2B0020FB0103FC8F2B0020FB00000098
:103E8000B12F0020FB010AFC8F2B0020FB0205FC58
:103E90008F2B0020FB0106FC8F2B0020FB0107FC71
:103EA0008F2B0020FB000000A12F0020FB0810FC3E
:103EB0008F2B00200000000000000000FB0739FCF1
:103EC0004F300020FB033AFC79300020FB0111FC4D
:103ED0008F2B0020FB0730FCD52F0020FB0331FC8B
:103EE00039300020FB0132FC8F2B0020FB0133FC1A
:103EF0008F2B0020FB0134FC8F2B0020FB0135FCB5
:103F00008F2B0020FB0136FC8F2B0020FB0137FCA0
:103F10008F2B0020FB0138FC8F2B0020FB013BFC8A
:103F20008F2B0020FB0D12FCFF2F0020000304004C
:103F3000020006041D04010C030C080C2D0C310CAE
:103F4000330C350C6C0C6D0C0110021003100510B5
:103F50000910051401200220032005200620072057
:103F6000082009200A200B200C200D200E200F20F5
:103F700010201120122013201420152016201720A5
:103F8000182019201A201B201C201D201E201F2055
:103F900001FC02FC03FC05FC06FC07FC08FC09FC18
:103FA0000AFC11FC10FC30FC31FC32FC33FC34FC0C
:103FB00035FC36FC37FC38FC39FC3AFC3BFC12FC87
:103FC000FFFF0000ED30002001F000008D310020E7
:103FD000C03F0020020000000840002000800020B8
:103FE000C8000000D03B00200840002020900020A6
:103FF00024010000D03B002068070800202A0800A8
:08400000E0050000D03B0020A8
:040000052000045182
:00000001FF
